:1017000002C00000050B14E0A5EFB3E0E2EEF6E145
:1017100002C005900D92AC30B107D9F723E0AEE7D7
:10172000B2E001C01D92A53FB207E1F710E0C3E0AF
:10173000D0E004C02197FE010E94620BC230D107A5
:10174000C9F71AC3E0E0F1E0918380839383828339
:101750009583848397838683918780879387828705
:1017600008950F931F93CF93DF93FC01BC016F5F2C
:101770007F4F8FEF9FEF0E94190BEB010091F90350
:101780001091FA032091FB033091FC03D901C801A9
:101790004DE0880F991FAA1FBB1F4A95D1F78027DC
:1017A0009127A227B327AC01BD0111E1769567957A
:1017B000579547951A95D1F784279527A627B727D8
:1017C0008C019D0145E0000F111F221F331F4A9518
:1017D000D1F7082719272A273B27C801BE010E94F5
:1017E000190BCB01E617F70788F20093F903109362
:1017F000FA032093FB033093FC03DF91CF911F91F9
:101800000F9108950F931F939CE2899FF00111247B
:10181000E152FD4F81E002811381248135814091A5
:10182000DB025091DC026091DD027091DE02041750
:1018300015072607370708F080E01F910F910895DC
:10184000CF93C0E08C2FDEDF882331F0CF5FC6302E
:10185000C9F781E0CF91089580E0FCCF8091DB0251
:101860009091DC02A091DD02B091DE028054984D8F
:10187000A64FBF4F8093E7039093E803A093E9033B
:10188000B093EA030895CF93DF93482F392FD62FD3
:1018900086958F71869FC0011124EFEFF0E0BF01A4
:1018A0000E942D0B262F2F71429546954695437029
:1018B000832F8770880F880F842B8D9FC001112480
:1018C000BF010E942D0B462FC62FCF71369536953E
:1018D00036953D9FC0011124BF010E942D0B220FA0
:1018E000842F8295880F880F807C2160660F660F99
:1018F000660F9C2F96959695822B962BDF91CF9114
:101900000895F8948091310190913201A0913301B2
:10191000B09134018093DB029093DC02A093DD024E
:10192000B093DE027894089590E0882341F0282F48
:1019300030E080FD9F5F35952795822FF6CF892F68
:10194000817008950F931F930091DB021091DC02C8
:101950002091DD023091DE02FC0180819181A28123
:10196000B381081719072A073B0748F4BC01CD01CA
:10197000601B710B820B930B1F910F91089560E018
:1019800070E0CB01F9CF0F931F93FC0181E0008140
:101990001181228133814091DB025091DC02609100
:1019A000DD027091DE02041715072607370708F0DD
:1019B00080E01F910F9108958EE792E0E4DF882385
:1019C000C1F08091DB029091DC02A091DD02B09128
:1019D000DE028053984FAF4FBF4F80937E029093AB
:1019E0007F02A0938002B09381028FE38093C802AC
:1019F00035CF08954F925F926F927F928F929F9210
:101A0000AF92BF92CF92DF92EF92FF920F931F930C
:101A1000CF93DF93D091C602C090DB02D090DC025E
:101A2000E090DD02F090DE02460157012CEB820EC1
:101A300022E0921EA11CB11C80E7C80E87E1D81ECF
:101A4000E11CF11C0FED12E0C0E055E0752E62E0E4
:101A5000462E5524539476E0672E8C2FD3DE8111C9
:101A600022C0F801808190E09C0145E035952795E2
:101A70004A95E1F72130B9F4959587959595879525
:101A80008770813049F5D13021F57092C70280927C
:101A9000A5029092A602A092A702B092A802C093BB
:101AA000A4021092A302CF5F045D1F4FC630A9F6B7
:101AB000DF91CF911F910F91FF90EF90DF90CF902A
:101AC000BF90AF909F908F907F906F905F904F905E
:101AD00008956092C702E7CF823089F4D230C9F707
:101AE0007092C702C093A4025092A3028092A502F2
:101AF0009092A602A092A702B092A802D4CF8330FF
:101B000091F6D33031F78FEA92E03DDF882349F038
:101B1000C092AF02D092B002E092B102F092B20253
:101B2000C2CF8FEA92E00EDF683B7B4081059105D2
:101B300008F0B9CF7092C7028092A5029092A602D7
:101B4000A092A702B092A802C093A4024092A3025E
:101B5000AACF0F931F93CF93DF938C01C0E0D1E006
:101B600084E690E0FEDD6BE9680FC8018CDE8993A6
:101B7000999381E0CC30D80799F7DF91CF911F91ED
:101B80000F91089586E992E0FEDE882319F084E043
:101B90008093C70208950F931F939091050491506D
:101BA000909305044091DB025091DC026091DD02CC
:101BB0007091DE028A019B01005A164F2F4F3F4F52
:101BC00000939E0210939F022093A0023093A102E3
:101BD00044545D4F6F4F7F4F4093A5025093A60230
:101BE0006093A7027093A8022091B5023091B602CB
:101BF0002F5F3F4F30939D0220939C0291E0909382
:101C0000A202E82FF0E0E257FD4F90831F910F9161
:101C10000895DF92EF92FF920F931F93CF93DF937C
:101C20000E94141C80E0E82E81E0F82E02E812E009
:101C3000D801F701819191918D939D9381E0EC30D2
:101C4000F807C1F7C8ECDC2ED0E06D2D81E098EFED
:101C50001ADE78DD0E94101C9AEFD90E42E067EF81
:101C600073E08D2F0E94081CDF5FD63071F7C452DD
:101C7000C43149F781E090E065DD0E94101CF894C2
:101C800040913101509132016091330170913401E2
:101C9000789410923F0110924D0110927F011092A2
:101CA000B1011092E301109215021092470281E0F7
:101CB0008093410180913F0180FF45C0F89440939B
:101CC00031015093320160933301709334010E94CB
:101CD000141C7894C3DD10924D0110927F01109274
:101CE000B1011092E3011092150210924702C0E078
:101CF000DC2ED0E0E6E0DE0E6D2D8FEF9FEFC3DD32
:101D000021DD0E94101C42E065EF73E08D2F0E94E0
:101D1000081CDF5FD63071F7CC5DC43B49F7F80192
:101D2000819191918F01F701819391937F01F2E06D
:101D30000E381F07A1F7DF91CF911F910F91FF90F0
:101D4000EF90DF90089580914101882309F4B6CF88
:101D5000EDE4F1E080E09081992329F094819531C0
:101D600009F081E01082F29692E0E937F90799F7DD
:101D7000882309F49FCFA2CFCF93DF93CDB7DEB7EF
:101D800063970FB6F894DEBF0FBECDBF81E080939E
:101D90004101B7DD63DD8EEB9AEB90930D048093E8
:101DA0000C0480E4809360008091F9039091FA0321
:101DB000A091FB03B091FC0320E210922701309127
:101DC00027013323E1F3309127013130C1F3309102
:101DD0002701880F991FAA1FBB1F3170832B215029
:101DE00061F78093F9039093FA03A093FB03B093F8
:101DF000FC030FB6F894A8958091600088618093E9
:101E00006000109260000FBE82E090E0AADC8F5F5D
:101E10008093C602332433942224239480910C04AB
:101E200090910D048E3B9A4B19F084E00E941E1C89
:101E300080913F0186FF4FC003DD882309F44BC02A
:101E400000E011E042E852E05F874E87DA01F801D6
:101E5000819191918D939D9351E0EC30F507C1F7FD
:101E6000E12C80913E01882321F080913F0187FF82
:101E700018C0AE85BF858D919D91BF87AE87F80153
:101E8000819391938F01AE58B24099F780913F01B1
:101E900087FD1EC081E090E055DC0E94101C0E946E
:101EA000121C81E090E04EDCFF24F394FE0CEE2D3A
:101EB000F0E0EE0FFF1FE050FF4F308228EF21834C
:101EC00036E0F31201C0F12C0E94101CEF2CC9CF98
:101ED000A0DE10923F0180913F0187FF03C099DE91
:101EE00010923F010EDD80913F0180FD65DDF89489
:101EF00080913E0180913F019091EC03892B80936A
:101F0000EC0310923F01809140018093EB037894A1
:101F10004FED52E05F874E870DE411E0D8018C91C0
:101F20008823B9F18091DB029091DC02A091DD025F
:101F3000B091DE0288539F4FAF4FBF4FEE85FF85B4
:101F400082839383A483B583D80113968C911397CE
:101F50008733E9F41296EC9012971496FC908F2D2B
:101F6000E3DC8823A1F0EE85FF85168217821086B8
:101F70001186F6FE03C020DD0E94141C8FEF8E0D2B
:101F80009F2D9F73813011F5AE85BF859C93F8011D
:101F900010822E853F85245D3F4F3F872E870E5C44
:101FA0001F4F32E00937130709F0B8CFE091C7029D
:101FB000E73008F0A5C1F0E0E15AFB4F03C79D04EC
:101FC0009C06B406B606B806190761079A3239F5B9
:101FD0009DEF9E0DB8016B5F7F4FFB0180E035E008
:101FE000300F2E2F231B291720F42081820F3196CA
:101FF000F8CF492F50E0FB01E40FF51F80952081B9
:102000002813C5CFEE85FF8582858111C0CF913120
:1020100008F0BDCF9287CF010B96DAD6B8CF8230C9
:1020200009F0B5CF953109F0B2CFD80115968C9152
:10203000853109F0ACCFEDDDAACF4091C0024B8BCA
:10204000442341F18CEB92E09EDC882319F184E675
:1020500090E087DB8997F0F08091FD03823009F0F2
:10206000A2C08093C70280EA809395028091DB0230
:102070009091DC02A091DD02B091DE028C5E9A4F5D
:10208000AF4FBF4F8093960290939702A093980210
:10209000B09399028091C1028111B8C082EC92E0A4
:1020A00072DC882351F08091C602811106C082E063
:1020B00090E057DB8F5F8093C602C090DB02D09028
:1020C000DC02E090DD02F090DE02D701C601885309
:1020D0009F4FAF4FBF4F8E879F87A88BB98B26012D
:1020E000370194EF490E91E0591E611C711C4601A5
:1020F0005701A4E68A0E911CA11CB11C0FED12E041
:102100001A8A8A897FDB811122C0F8012081822FFF
:1021100090E0229526952770D1F495958795959511
:10212000879587709FEF980F933088F49091940271
:1021300091110DC080939402813009F041C08092CA
:102140009E0290929F02A092A002B092A1023A89B0
:102150003F5F3A8B045D1F4F363099F64B89411132
:1021600020C08EE992E00FDC8823D9F080919402A0
:102170008093C7028230E1F1833009F440C081309E
:1021800071F454E1C50E55E0D51EE11CF11CC0925E
:102190009602D0929702E0929802F09299021092E1
:1021A000940228DCADC0813021F48093C70288EE10
:1021B0005BCF833009F05ACF8093C70288EB54CFAE
:1021C000823049F440929E0250929F026092A00297
:1021D0007092A102BCCF2E853F85488959892093F2
:1021E0009E0230939F024093A0025093A102AFCF72
:1021F00088EBC80E8BE0D81EE11CF11CC8CF98E814
:10220000C90E93E1D91EE11CF11CC1CF813009F048
:1022100077C090910504911102C08093B70280911C
:10222000B70281116DC00CDB81111092A2020FEF79
:1022300013E0AEE8B2E0BF87AE8746E0C42E44E0CC
:10224000D42E5FEDE52E52E0F52EB12C66E0A62EE1
:1022500075E0972EE2E08E2EF3E07F2E8B2DD2DA02
:102260008111E2C0F7012081822F90E0229526950E
:102270002770A1F5959587959595879587708530F9
:1022800009F0BBC0AE85BF858C91811111C08091D2
:10229000B5029091B602B4E0BB12A2C0039690932F
:1022A000B6028093B5027092FE03EE85FF85308200
:1022B000D8019C928091DB029091DC02A091DD021A
:1022C000B091DE0284549D4FAF4FBF4F8093A50263
:1022D0009093A602A093A702B093A802B3940F5FB5
:1022E0001F4F2E853F852F5F3F4F3F872E873FEF44
:1022F000C31AD30A4CE2E40EF11C56E0B512AECF7D
:102300002091EC03322F3F7D25FF30C08091EB03FD
:10231000833061F51092C1028091C00283258093C1
:10232000C00284E08093C7028091DB029091DC02BE
:10233000A091DD02B091DE02AC01BD014059584EC2
:102340006F4F7F4F4093BC025093BD026093BE021B
:102350007093BF0280589645AC4FBF4F8093B80230
:102360009093B902A093BA02B093BB022F7C209342
:10237000EC0334FF07C08091C102813009F051C1E4
:102380001092C1028091C1022091C002811103C24A
:102390009091C702892F880F880F8093B402382F3D
:1023A000803408F03FE33093E00230930C03309325
:1023B000380330936403309390033093BC0322239B
:1023C00009F45AC4E091B3022CE2E29FF001112417
:1023D000E152FD4F8260803408F08FE3818334C185
:1023E00001969093B6028093B502B11003C020927B
:1023F000FE035BCF8092FE0358CF863051F4EE850A
:10240000FF858081811102C08B2DC5DBD801AC9284
:1024100065CF8150823008F061CF8091A202811196
:102420005DCF8B2DB8DB5ACFEE85FF851082D601AC
:102430008C91F801808352CFA5DB1092C602809167
:10244000DB029091DC02A091DD02B091DE028851A6
:102450009C4FAF4FBF4F8093C2029093C302A09393
:10246000C402B093C5024CCF8DDB4ACF8BDB99CE33
:102470001092C70288E893E190939B0280939A029E
:102480008091C002882331F18091950290E08857B5
:102490009C4E092E000CAA0BBB0B4091DB02509105
:1024A000DC026091DD027091DE02840F951FA61F91
:1024B000B71F8093BC029093BD02A093BE02B0935D
:1024C000BF0282E090E04DD98130910561F140F189
:1024D000029769F18FED92E09F878E8710E004E00C
:1024E000812F90D9811113C0AE85BF852C91822F89
:1024F00090E022952695277051F4959587959595AE
:10250000879587708150833010F40093C7021F5F56
:10251000EE85FF85BC96FF87EE87163009F7F0CE73
:102520002092FD03D7CF82E08093FD03D3CF83E0D9
:10253000FBCFC090DB02D090DC02E090DD02F09097
:10254000DE02F0EDCF0EF7E0DF1EE11CF11C2FEDF7
:1025500032E03F872E8710E003E0812F53D98111AD
:1025600024C0AE85BF858C9190E09C01B5E0359587
:102570002795BA95E1F72130C1F495958795959502
:1025800087958770853089F41092C602C092C20286
:10259000D092C302E092C402F092C50286E992E0B2
:1025A000F2D981110BC00093C7021F5FEE85FF8532
:1025B000BC96FF87EE87163081F6A2CE1092C70236
:1025C000F4CF2FED32E03F872E8710E003E0812F1C
:1025D00019D981111AC0AE85BF858C9190E09C01FC
:1025E000F5E035952795FA95E1F7213071F4959549
:1025F0008795959587958770863039F486E992E0BE
:10260000C2D981110BC00093C7021F5FEE85FF8501
:10261000BC96FF87EE871630D1F672CE1092C702B5
:10262000F4CF8111AFCE1092C0022092C10210925D
:10263000B70283E0809305041092B6021092B502AF
:10264000A1CE222309F469C06091DB027091DC0203
:102650008091DD029091DE0228E532E040E050E01A
:102660008FD324E630E040E050E08AD3322F20932D
:10267000B302E9EAF2E0A0E0B1E090E02FEF391711
:1026800009F40CC18081853008F406C18450808330
:102690008191869586958E734D81417C482B4F7331
:1026A0004D834C9311961C92119712969F5F963012
:1026B00031F78CEB92E046D98B019C0180919A0214
:1026C00090919B0269E170E048D3072E000C880BC3
:1026D000990B0617170728073907F8F48091FD03AF
:1026E000823009F4DDC0833009F4ECC08130A9F4F4
:1026F0008E81817C88618F738E8390E023D885E002
:1027000090E02FD8FC01EE0FFF1FEE7FF170E0503C
:10271000FF4F8FEF808383E081830E94101C812C08
:10272000912C5401AFEDB2E0BF87AE87D82CEE8577
:10273000FF8546815781608571858091DB0290918C
:10274000DC02A091DD02B091DE0284179507A60796
:10275000B70708F469C2C38CCC2009F481C27F0199
:10276000FCE1EF0EF11C0C2D10E0A801B7018AEC82
:1027700092E02ED30F5F1F4F80E02E85245E9E2DAA
:10278000921B9C1508F005C2D7019C91890FF70197
:1027900031967F01F4CF813009F053CFEFEFF3E0B2
:1027A000AFEDB2E08191880F880F805E982F803462
:1027B00008F09FE311969C9311979C9634E0E530C6
:1027C000F30781F78093B40221113ECF8091B702C5
:1027D000882309F4DDC064E68FEF97E054D80E94A7
:1027E00022005C8551705C875093040183E08093E4
:1027F00005018D8581708D878093060183E080932C
:1028000007018B81817C88618F738B8380930801A2
:1028100081E1809309018C81817C88618F738C8335
:1028200080930A0181E180930B018EE992E0ABD89D
:10283000882309F471C04091DB025091DC02609161
:10284000DD027091DE02DB01CA01805E9C4FAF4F5A
:10285000BF4F80939E0290939F02A093A002B093DB
:10286000A10280919C0290919D0285369105C4F150
:102870008456910990939D0280939C0285EA92E090
:1028800082D881114ACF8091A202882309F4ABC07B
:102890008FE390E05ED941CF1082FACE2083F8CE4C
:1028A00085E090E00E9431004F81417C406C4F8375
:1028B000FC01EE0FFF1FEE7FF170E050FF4F4083F1
:1028C00087E62ACF85E090E00E943100FC01EE0F00
:1028D000FF1FEE7FF170E050FF4F308211821DCF5D
:1028E0008B30910514F00A97C5CF8230910514F012
:1028F0000197C0CF405C594F6F4F7F4F40939E026E
:1029000050939F026093A0027093A1028091B50240
:102910009091B6020196AECF8EE992E013D860395D
:1029200071408105910508F0A9CF80919C0290919A
:102930009D02853691055CF0BFEFB0930001E7E0A2
:10294000E0930101B0930201E093030197CF8B3034
:1029500091055CF081EC80930401F7E0F0930501B0
:1029600080930601F093070189CF02970CF486CF7C
:102970002A852E6F2A87209308018AE28093090115
:102980003B853E6F3B8730930A0180930B0176CFE6
:1029900081E090E00E942200309105048091F303D1
:1029A0009091F403E0E0F1E020E0422F46954317D8
:1029B00010F4918380832F5F32962630B1F74985DA
:1029C0004E6F4987409300018AE28093010187E0BE
:1029D00091EC90930401809305019FEF909308017F
:1029E000809309014BCF8091FE03823059F08330F0
:1029F00061F0813009F091CE58855E6F5887852F40
:102A00009AE248CF81EC97E045CF8FEFFCCF8A81E7
:102A1000817C806C8A8397E63DCF8981817C84604C
:102A20008F73898390E336CF8FEF8093F10387E034
:102A30008093F20347C182EC92E00E94430181112E
:102A400078C08091F3039091F403EE85FF85918324
:102A50008083D1FE02C0F801A082D8018C9185301C
:102A600008F490C084508C93D8016D918D01662339
:102A700041F08FE390E00E94C300EE85FF859183D3
:102A8000808385EA92E00E944301811144C09090C6
:102A9000A402E091A302F0E0EE0FFF1FE351FC4F10
:102AA000C080D18085EA92E00E9422012CEB32E0C6
:102AB00040E050E0261B370B480B590BCA01B90107
:102AC00027E530E040E050E05BD150E040E0692D88
:102AD00070E0CA01861B970B97FF03C09195819503
:102AE00091098230910509F450C08430910509F4B0
:102AF0004CC0039709F44BC083E0821738F0FA0109
:102B0000EE0FFF1FE050FF4FD182C0824F5F5F4F3B
:102B100046305105F1F6B3944E855F854E5F5F4FA9
:102B20005F874E875CE2E50EF11C86E0B812D7C0E5
:102B3000F4CDE091C602E150FF0BEE0FFF1FE35111
:102B4000FC4F80819181DCC082EC92E00E944301C5
:102B5000811109C08091F3039091F403AE85BF8584
:102B60008D939C937ACFE091C602E150FF0BEE0F5C
:102B7000FF1FE351FC4F80819181EE85FF8591839A
:102B800080836BCFF80110826FCF82E0B6CF81E0F7
:102B9000B4CF07531D4F8095D8018C9302E00C0DE4
:102BA0001AE2F090C802E82C8F2D90E0082C02C0A9
:102BB000959587950A94E2F780FF57C0C12E6894D7
:102BC000C6F88C2D0E941401811102C0106CC12E18
:102BD00081E090E001C0880FEA94EAF78095F8223E
:102BE000F092C8021C2D1093C902402F69EC72E0CC
:102BF0008D2D0E94081C8823B9F08091DB029091F2
:102C0000DC02A091DD02B091DE028A569F4FAF4FE9
:102C1000BF4F880D991DAA1DBB1DEE85FF858683BC
:102C20009783A087B187138E2E853F85245D3F4F04
:102C30003F872E873FEF831A930AA30AB30A46E021
:102C400084169104A104B10409F070CD87EE93E0DD
:102C50000E944301882309F4E1C80E948902DEC86A
:102C6000EE85FF85118101E09CCF812F0E94140128
:102C70008111B9CF1068B7CF923009F4C8CE40F4B3
:102C8000992361F0913009F048CD8FEF93E002CEA7
:102C9000933009F4C2CE943009F03FCD8FEA92E030
:102CA0000E9443018111C0CE8BE990E00E94310067
:102CB00064E6680F8FEF97E00E94C3009093F203E1
:102CC0008093F10309EA12E0A0E0B1E0BF87AE878C
:102CD0004FEDE42E42E0F42EB12CAA24AA948B2DC1
:102CE0000E948200811130CFF701D0808D2D829516
:102CF0008695877009F09FCE8091F3039091F4033D
:102D0000AE85BF858D939C93A4CE86E58093F30317
:102D100082E68093F403EDEEF3E08EEF80838AE2A7
:102D2000818381EC828387E083839FEF9483858313
:102D30000895AA1BBB1B51E107C0AA1FBB1FA61702
:102D4000B70710F0A61BB70B881F991F5A95A9F754
:102D500080959095BC01CD01089597FB072E16F440
:102D6000009406D077FD08D0E4DF07FC05D03EF4E0
:102D7000909581959F4F0895709561957F4F089527
:102D8000A1E21A2EAA1BBB1BFD010DC0AA1FBB1F6F
:102D9000EE1FFF1FA217B307E407F50720F0A21BE1
:102DA000B30BE40BF50B661F771F881F991F1A944E
:102DB00069F760957095809590959B01AC01BD0178
:102DC000CF010895EE0FFF1F0590F491E02D0994B7
:102DD000FB01DC0102C001900D9241505040D8F738
:022DE000089554
:102DE20033331515A28CD6920101010002000300B3
:072DF20003010002000300D1
:0400000300001700E2
:00000001FF
